:020000040000fa
:10000000f01f0020191900001b140000c315000088
:1000100000000000000000000000000000000000e0
:10002000000000000000000000000000130c0000b1
:100030000000000000000000130c0000130c000082
:10004000130c0000130c0000251f0000130c00000f
:10005000130c0000130c0000130c0000251b000003
:10006000130c0000130c00005d1b0000130c0000bb
:10007000130c0000130c0000130c0000130c000004
:10008000130c0000130c0000130c0000130c0000f4
:10009000130c0000130c0000130c0000130c0000e4
:0400a000130c00003d
:020000040000fa
:1000a400f8b5c046f8bc08bc9e467047f918000075
:1000b400f8b5c046f8bc08bc9e467047d11800008d
:020000040000fa
:1000c400f0b59bb013930b6815900a938b680d9150
:1000d4000b930b694d681893cb68029313680893cc
:1000e40053680898069300220023069901f0f9fc4e
:1000f40000280dd10a9b5b073bd408200a9b0340d0
:1001040009930b9b0393099b002b0fd0202306e03c
:10011400802212069446069b634406932d23029a7a
:1001240013700b9b013b039301230993069b0899ce
:100134005b005b08924a00291dd193421bd10299ae
:10014400139b8c46099a413b624410008d49192b3c
:1001540000d98d4901f0eafe029801f055fe0a9b90
:100164000200009302990b9b159801f017f91bb03c
:10017400f0bd2b23d3e7934203d80ed1089b002b69
:100184000bd00299139b8c46099a413b62441000a0
:100194007e49192bded97e49dce70022002308982a
:1001a400069901f041fd00267a4f002400283ed133
:1001b400040002e00134049e059f0022764b3000c7
:1001c400390000f07bfc089a069b0490059101f02d
:1001d40069fc0028eed00023049320e06f4b9c427e
:1001e40014da049b002b11d100226d4b0898069958
:1001f40000f064fc6a4b089006913000390000223c
:1002040000f05cfc012306000f0004933000390069
:100214000022614b00f094fd06000f00013c320007
:100224003b000898069901f05cfc0028d6d113988d
:1002340001f062fec3b20c93002d00da94e1049342
:10024400672b00d0b2e0002d00d189e1231d02db31
:10025400ac4200daa6e06523b6e0002200230e9249
:100264000f9303e106960797049b2600652b00d0a5
:100274001ae1002618e1129b002b0bd1002e09da9b
:10028400029a14992e335354039b0137013b039371
:1002940001231293ea193b009446302102e0029aaa
:1002a400d15401339c45fad1039aeb19551b029a98
:1002b40030305f1cd0546b1e0393002521e00d9b4e
:1002c40014971b691093053bbb4200d8f5e0069ace
:1002d400079b08980e9900f033fd00f0f3fd109091
:1002e400119101f06ffc092800dd092010230a9afe
:1002f40013400343bfd10c9b672bbcd1002ec9da3a
:1003040001358020000684460e99089a61440b004a
:100314001098119900920193069a079b01f0e4fd4d
:1003240080231b06cb1808900e9306980799002289
:10033400194b00f005fd013e06900791b9e00a9bb8
:10034400db0600d4bde02e23029ad3550137b8e072
:1003540020000a2100f002ff029b3031013d595573
:1003640020000a2100f0b0fe039b0400013b03932c
:10037400b7e0029b03991a5c5b181a540138e0e059
:100384000000f07fda1e0000de1e0000e21e000006
:10039400e61e00000000f03f00002440d4fefffff2
:1003a40000005043002c0eda66230493049b0135ad
:1003b400662b0ad1002c02da002600246d4f0c9b18
:1003c400672b00d02d1966230493089b0e960f9774
:1003d4001293069b1093002314930e9a0f9b12986a
:1003e400109900f0adfc00f06dfd1690179101f02e
:1003f400e9fb19908020000684461099129a614402
:100404000b0016981799009201930e9a0f9b01f016
:100414006bfd80231b06cb18129010930e980f9936
:10042400554b002200f08cfc149b0e900f9101336d
:1004340014939d42d1d10022504b00f03ffb0e900b
:100444000f9102000b001298109901f04afb00284a
:1004540000d002e70e9a0f9b1298109901f0e4fb6a
:10046400002803d0199bdb0700d4f6e60e9a0f9bf5
:100474000898069900f022fa002208900e913e4b4b
:100484003000390000f01afb089a0e9b0690079181
:1004940001f086fa002800d1e4e6049b0134662bbf
:1004a40000d0e1e626000135731b0025099f169351
:1004b4001295169b9e4200d001e7129b002b00d19f
:1004c4003de70026029bdb1906931e70049b652bf7
:1004d4002ad1189b5d1e029b5e55b44201da644228
:1004e4000136002c00d033e7189beb1a0333002ba2
:1004f40000dd2de76a1e2d23002e00d1023b029958
:10050400023d8b54139b413b192b01d84523049383
:10051400029b5919049b0b70039b023b0393af424c
:1005240002da069801f002fd03230a9a1340022b13
:1005340000d011e6039b002b00dc0de6029801f0cd
:1005440063fc099b834200dc13e7029a3021944642
:1005540063441800039a01f0a1fc00230b93fbe50c
:10056400012573e6062571e60c9b672bfad00493ec
:1005740006251be70000f03f000024400000144063
:020000040000fa
:100584000023f0b506001500b1b007910393079955
:100594000b78002b00d10ce101235b420c9310abd0
:1005a40000240e9380230b940d940f930b5d002b6a
:1005b40001d0252b2ad1002c06d02200300001f0d6
:1005c400cbfb079b1b190793079b1a78252a00d09e
:1005d400e4e0013304930793022301219c4610278e
:1005e400079803782b2b1ad025d8202b1ad0232b2d
:1005f4001dd02a2b28d001f035fa0d90079b1a78cc
:10060400303a092a31d801330793f7e70134cde7ab
:100614000b9b05930b4301300b930790e0e70423f6
:100624000b9a0fe00b9b0593059a08230ae00b9b9a
:1006340005933b43efe72d2bead0302bd9d162460b
:100644000b9b05931343e6e72b6801301a1d1b68c7
:1006540007902a600d93002b07da0b9a5b420592f0
:10066400012205990d934a400b920b9bda0702d5a0
:10067400022293430b93079b1a782e2a0ed1002251
:10068400581c0c9207905a782a2a27d102330793d0
:100694002b681a1d1b682a6005930c9307a801f0a8
:1006a40077fa079b0700187801f026fc692800d127
:1006b40082e034dc632800d1dbe01adc252800d199
:1006c400e8e0612858d0049b01220793002352429a
:1006d4000c920b930d9300930232e5e001f0c2f902
:1006e4000c90079b1a78303a092ad7d8013307931c
:1006f400f7e7642860d06728e5dc2a00390008a8f9
:1007040001f0ecfa002800d1afe0079b0ba95a1cba
:1007140007921b7808aa3000fff7d2fc3de070284e
:1007240000d17de016dc6e2800d197e06f28cad195
:100734002b000022390008a800f064fb002800d137
:1007440093e0079b08aa01330ba93000079301f03b
:10075400fdfb22e0752840d078284fd07328b2d111
:10076400802f00d081e0079b2a6801330793131d73
:100774002b601268002388e02a00390008a801f0e1
:10078400adfa002800d170e0079b0ba95a1c079210
:100794001b7808aa300001f0dbfb2418039b1c190a
:1007a400a34200dc82e04f22414b1a6001235b42ea
:1007b4000393039831b0f0bd2b000122390008a83f
:1007c40000f020fb002850d0079b08aa01330ba996
:1007d4003000079301f0bafbdfe72b000022390059
:1007e40008a800f00ffb00283fd0079b08aa01339c
:1007f4000ba93000079301f0a9fbcee72b000022e0
:10080400390008a800f0fefa00282ed0079b5a1cd5
:1008140007921b7808aa0ba9300001f099fbbce7ea
:100824002b000022f02108a800f0ecfa00281cd0cc
:10083400079b099a01330793089b13430cd11d4f5f
:10084400380001f0e1fa390002000b9b00930d9b84
:10085400300000f0a3fda0e77823dbe7039b390019
:100864001a1908a82b0000f045fe079b01330793d3
:1008740094e7802ff9d1079b013307932b681a1d46
:100884001b682a6008aa137001230ba9300001f029
:1008940061fb82e7802fe8d10122079b0133079394
:1008a4000b9b049300930d9b0349d1e703946ee6dd
:0c08b40000010020441f00004a1f00004b
:020000040000fa
:1008c000f0b40125ed070f005f405ad48b4200d1f0
:1008d000824205d950404240504059404b40594017
:1008e0004e18760ddf187f0d3bd0741c640529d09f
:1008f000f41b352c26d80e0ddb022b43db0ac90274
:100900002943c9121700202c1ed2e741e24057406c
:10091000e3415a40a340e3405a4000248018594123
:100920000ad3b21c520521d0c207012f6241170021
:100930004008cb0718434908013636054208af4145
:1009400060417141f0bc7047203c06d01f00e74178
:10095000e3405f400024012a6741c0186141ebd3a6
:10096000dfe7002eeed129400020ebe7013631050c
:100970000020e7e7e742e5d10020c143090dc904a3
:10098000e0e76b400e00871a9e4104d26e40c01b08
:10099000b141d21973414e18df18ac0ae642e9d2d0
:1009a000760d7f0d31d0f41b362ccbd8b4460e0d0e
:1009b000db022b43db0ac9022943c90a012c32d8c6
:1009c00004d1d4075208df073a435b08ef0a6442b8
:1009d000904199411ed0002239424dd12419404105
:1009e00049410124394204d10134001849413942b6
:1009f000fad06246a24204d9361b013e3605891957
:100a0000a0e7f10ac90700209ce736429ad10020ee
:100a1000002197e70200224394d0b842ded20100c1
:100a200020002024e3d1202c13dd203ce2411700dc
:100a3000a240e2405740e3415a40a340e3405a40bd
:100a4000012fbf410137174300227c429841914159
:100a50000ce01700e741e2405740e3415a40a34011
:100a6000e3405a407c429041994100220f0303d257
:100a7000013e241940414941013e36054708ac4139
:080a800050417141f0bc7047c8
:020000040000fa
:100a880008d1002806d1f54204d801d3002a01d1a3
:100a98006d0d09d10020c143090dc904f0bdf9d17c
:100aa8001242f7d1640df5d00020c1434905490829
:100ab800a6e000206146f0bdf0b50127ff070e0053
:100ac8005e403e40b446be0a4c18dd18f442d7d208
:100ad800f542e4d2640decd06d0dead06419c90278
:100ae8003943460dc0023143db023b43db0a10b4f5
:100af8008e4685b297b26f43140c6c433e0ca41912
:100b0800260c2404bfb227439cb26c43a419190cc9
:100b18006943250ca4b249190d04090c6419000c89
:100b280095b245433e0c76193743bfb2360c150cc7
:100b38004543ad19a6b2240cad192e0437432e0c2b
:100b480036199db24543ad19acb22e0c89191d0c4e
:100b580045436d182e04290c3443704680b295b273
:100b680045433e0c76193743bfb2360c150c454346
:100b7800ad19a6b2ad19240c2e0437432e0c361924
:100b88009db24543ad19acb22e0c89191d0c4543d5
:100b98006d182e043443290c75462d0c90b2684309
:100ba8003e0c80190604bfb23e43070ca0b23f18a2
:100bb800120c6a43d019020c80b2240ca4189ab201
:100bc8006a43121914042043120c89181b0c6b4336
:100bd800c91810bc01273d05294203d1b619404167
:100be8004941013cff077d0d013d641b0bdb6d0096
:100bf800ac4209da240500254208be41684161413a
:0a0c080066463143f0bd54e74ee7a5
:020000040000fa
:020c1200fee7fb
:020000040000fa
:100c1400394b5b689b02fe22d20313400622134326
:100c2400364a93610423d1680b42fcd0344b354ad5
:100c34005a60354a9a601a0053785bb2002bfbdb8a
:100c44002f4b324a5a60324a9a601a0053785bb288
:100c5400002bfbdb2a4b2f4a5a602f4a9a601a005a
:100c640053785bb2002bfbdb244a938c80218b43ab
:100c740093841023d1680b42fcd0284b1b689b0e35
:100c84003f2b36d09b028022920013431b4a93626f
:100c94001b4b8222d2015a80184a1023d1680b427e
:100ca400fcd0164b1e4ada621a001023d1680b429c
:100cb400fcd0124b06229a841a004023d1680b42be
:100cc400fcd00f4b174a5a601a0053785bb2002bc2
:100cd400fbdb0b4b144a5a80144a5a80144a5a803c
:100ce400144a5a80144b1f225a61da61134a1a6259
:100cf4007047203bc6e7c0462060800000080040e3
:100d0400000c004003060100033e00000106010040
:100d1400014000000203010002040000246080007e
:100d2400000c010400070100014200000d40000016
:100d34000e40000010400000000400402c000100a0
:020000040000fa
:100d4400f0b40125ed070c005c402c40a446ae0a2b
:100d54004c18df18f4423dd2f74245d2640d4cd012
:100d64007f0d3cd0e41bc9022943cf0adb022b438d
:100d7400db0a0600b61a9f4104d2013cb6197f4132
:100d8400b6185f416812800d241838dd00188442bb
:100d940025d8e80c0021b6197f41b61a9f4103d328
:100da40040414941f7d304e0b6185f410018494176
:100db400f1d32405b6197f41b61a9f4105d33743b1
:100dc400c20717430022012f50416141624611437b
:100dd400f0bc70470cd100280ad1f74208d2002099
:100de400c143490d0905f1e7002a01d1f74206d0b4
:100df4000020c143090dc904eae77f0df8d00020a3
:040e04006146e5e777
:020000040000fa
:100e080010b588293cd015dc81294dd003dc802918
:100e18004ad0002010bd822911d08429f9d119683f
:100e2800002a26d00a1d1a6000228b5e0360db1799
:100e3800436011e0a02930d010dc9029e9d119686d
:100e48000724002a2ed00919a1430a0008321a6083
:100e58000b684c68036044600120dbe7c02901d0bf
:100e6800f029d6d11a68111d196013680360002390
:100e7800dee70c1d1c600b689bb203604260ebe769
:100e88001968002a04d00a1d1a600023cb56cde742
:100e98000c1d1c600b68dbb2efe71a68111d1960a6
:100ea8001368c3e70731cfe71968002a03d00a1d82
:0e0eb8001a600b68bae70c1d1c600b68dde7c2
:020000040000fa
:020ec600704773
:020000040000fa
:100ec8004b005b0d264af0b55c1e944238d8254a83
:100ed8009e1825d4332e22dc234a9b1827d4234a74
:100ee800da400700214b9743f3403c000f000240d3
:100ef8009f4319403d000a430fd0002f0dda2023ed
:100f08005b42f11824d480204003c84002008021ad
:100f18004903f1400b00a4185d4120002900f0bdf1
:100f28000020002901db0021f9e71149f7e7202219
:100f38000e4b921b934001225242f2401a43d0e7d3
:100f4800002becd10022c90fcb0710001900e6e7ef
:100f580020218020891b400388400200d7e7c04633
:100f6800fd07000001fcffffe1fbffffffff0f0093
:040f78000000f0bfc6
:020000040000fa
:100f7c0070b5274b1b8a9bb226492c228a5c002a0f
:100f8c001cd00a00c969126a8a4217d20722134080
:100f9c00204a946a13d11e490a8b92b21d4b1b6acc
:100fac0048680721014001291cd01a498969ca5493
:100fbc000133184a1362d2699a4218d070bd1500d9
:100fcc00d38500f09dfe00232c22ab54eb61104b1b
:100fdc00283a1a736b6a002bf0d00e4b5b6a200018
:100fec009847ebe70b49896958004252e0e7094bf7
:100ffc0000222c215a54da61054a283911735b6a94
:10100c00002bdbd0034b5b6a20009847d6e7c04629
:08101c00000800425000002012
:020000040000fa
:1010240070b5274b1b8a9bb226492c228a5c002a66
:101034001cd00a00c969126a8a4217d207221340d7
:10104400204a946a13d11e490a8b92b21d4b1b6a23
:1010540048680721014001291cd01a498969ca54ea
:101064000133184a1362d2699a4218d070bd150030
:10107400d38500f05dfe00232c22ab54eb61104bb2
:10108400283a1a736b6a002bf0d00e4b5b6a20006f
:101094009847ebe70b49896958004252e0e7094b4e
:1010a40000222c215a54da61054a283911735b6aeb
:1010b400002bdbd0034b5b6a20009847d6e7c04681
:0810c40000140042800000202e
:020000040000fa
:1010cc00002941d010b4041c4c40a446012300223a
:1010dc00002900d54942002800d5404288422cd333
:1010ec0001242407a14204d2814202d209011b012e
:1010fc00f8e7e400a14204d2814202d249005b002d
:10110c00f8e7884201d3401a1a434c08a04202d394
:10111c00001b5c0822438c08a04202d3001b9c08d5
:10112c002243cc08a04202d3001bdc082243002837
:10113c0003d01b0901d00909e3e7101c6446002cfd
:10114c0000d5404210bc704701b5002000f000fff4
:10115c0002bdc0460029f7d003b5fff7b3ff0ebca4
:08116c004243891a1847c046ee
:020000040000fa
:1011740070b504000d1e00d1204d214a13680221d0
:101184008b431360138a1bb2002bfbdb002c32d081
:1011940021686b080020994223d84900280000f0f8
:1011a40033f8174a136817490b4013601168a36892
:1011b40065682b430b4313600138ff2800d9ff20d7
:1011c400c0b20f4b98725a6807218a435a605a6812
:1011d400e1680a435a601a00138a1bb2002bfbdb36
:1011e4000120074a136802210b431360138a1bb2c0
:1011f400002bfbdb70bd0020f3e7c046006cdc0273
:08120400000c0042ffffffcfc8
:020000040000fa
:10120c00002934d00123002210b488422cd30124ad
:10121c002407a14204d2814202d209011b01f8e742
:10122c00e400a14204d2814202d249005b00f8e7fb
:10123c00884201d3401a1a434c08a04202d3001b27
:10124c005c0822438c08a04202d3001b9c0822435a
:10125c00cc08a04202d3001bdc082243002803d098
:10126c001b0901d00909e3e7101c10bc704701b53c
:10127c00002000f06dfe02bd0029f8d003b5fff789
:0c128c00c1ff0ebc4243891a1847c0463f
:020000040000fa
:10129800f8b51e4b1b7d002b37d01c4a936851684c
:1012a8001b4a927bd2071dd599421bd9184907269c
:1012b800164a944617001500012409e03a68d25ce2
:1012c8000a83013368688a7b22420bd0984209d985
:1012d8004a683240012af1d1624612685800825a9f
:1012e8000a83eee7094a936052689a420dd8074b81
:1012f80000221a755a60064a01211173db68002b17
:1013080003d0024b1869db689847f8bd50000020ed
:041318000008004287
:020000040000fa
:10131c00f8b51e4b1b7d002b37d01c4a93685168c7
:10132c001b4a927bd2071dd599421bd91849072617
:10133c00164a944617001500012409e03a68d25c5d
:10134c000a83013368688a7b22420bd0984209d900
:10135c004a683240012af1d1624612685800825a1a
:10136c000a83eee7094a936052689a420dd8074bfc
:10137c0000221a755a60064a01211173db68002b92
:10138c0003d0024b1869db689847f8bd8000002039
:04139c0000140042f7
:020000040000fa
:1013a000f0b51d00012389b014000e9a06001a4002
:1013b0000391029201d1a5420ad82200039930007c
:1013c00000f0ccfca54203d82500280009b0f0bdf0
:1013d0002f1b01973a00102f00d91022202104a8ba
:1013e00000f05efd019b0f2b0ed80f2204a93a409e
:1013f000300000f0b3fc029b002be6d122000399e1
:10140000300000f0abfce0e7102204a9300000f04f
:0a141000a5fc019b103b0193e4e7eb
:020000040000fa
:02141a00fee7eb
:020000040000fa
:10141c0070b5002830d0194b1a7d0023002a29d131
:10142c00164b1860596001321a755c68144b9b7b23
:10143c00db0716d5002c17d00023114907260125f0
:10144c0007e0c25c0a8301338a7b2a420bd09c42a0
:10145c000ad04a683240012af3d15a00825a0a83d0
:10146c00f1e7002400e01c00044b9c60044b0122bb
:10147c005a730123180070bd0023fbe750000020b5
:04148c000008004212
:020000040000fa
:1014900010b5184b9e22d2021a60012144229954a1
:1014a0000132995400224c201a5401301a54013050
:1014b0001a5401301a5401301954013019544f385c
:1014c00052241855013419553131203c5c540431f3
:1014d0005a5401315a540131113c5c540131023cdf
:1014e0005c544731e4025c505031585418395a5416
:0814f00010bdc046004400419c
:020000040000fa
:1014f80010b584291fd007dc812915d0822922d074
:10150800802911d0002010bd90291cd008dc882922
:10151800f8d119680c1d1c600b6803601a7010e084
:10152800a02901d0c029edd119680c1d1c600b68d9
:1015380003601a6005e019680c1d1c600b680360e5
:101548001a800120dfe719680c1d1c600b68036016
:081558001a60d2175a60f4e793
:020000040000fa
:101560004b1801225205da4217d25b0d0722d20135
:101570009b1a0fd9ff2b13d2db05ca0fd2071343d7
:101580000903020d1143490ac200524100d9013139
:10159000c8187047c80fc007704706d1002804d18b
:1015a000c80f0002ff30c00570470123db070a00a7
:1015b000c900400f084398431a4010435b0a184380
:0215c000704772
:020000040000fa
:0215c200fee742
:020000040000fa
:1015c40010b58eb0902000f05dfb00f0f5fb0f4ae3
:1015d4000f4bfff773fa00220e4bfff76ffa00224e
:1015e4000d4bfff76bfafff7b9ff041c00f0b6f9d7
:1015f40002000b00094901a800f012fc322101a8e5
:10160400fff70aff201c0eb010bdc0466666666672
:1016140066660a400000303f000059403c1f00004d
:020000040000fa
:10162400124b134a1a60134a5a81c02292025a601a
:101634001a00138a1bb2002bfbdb0c4a136802212d
:101644000b431360138a1bb2002bfbdb0a4b0022f3
:101654009a61da611a622c215a545a621a605a60e9
:101664009a601a75da60da857047c046000800424d
:0c167400040110405cfeffff500000204d
:020000040000fa
:10168000124b134a1a60134a5a81c02292025a60be
:101690001a00138a1bb2002bfbdb0c4a13680221d1
:1016a0000b431360138a1bb2002bfbdb0a4b002297
:1016b0009a61da611a622c215a545a621a605a608d
:1016c0009a601a75da60da857047c04600140042e5
:0c16d000040100402bf6ffff800000200a
:020000040000fa
:1016dc0000230e4a10b513600d4a13600d4a1360b7
:1016ec000d4a13600d4a13600d4a536213610133a6
:1016fc00936000f004fb00f002fb0a4c0a4b9c4286
:10170c0000d310bd08cc9847f8e7c046fc00002079
:10171c000c00002008000020000000200400002025
:0c172c0010000020b0000000b40000001d
:020000040000fa
:1017380010b5134901228b7b1342fcd080b2104ba9
:101748001883190002228b7b1342fcd00c4b9b7b25
:101758005b0712d40a4b0421188b80b29a7b0a4289
:10176800fad0c4b2002c01d1200010bd802149025a
:101778000a00044800f0ccfbf6e70024f4e7c04672
:08178800000c00428044004106
:020000040000fa
:1017900030b5bff35f8f62b6104bc02080001a587f
:1017a0000f4c2240c02109040a431a5004221a6037
:1017b000c125ad005a591202120ac0200006024388
:1017c0005a5180221a60c22080001a5822401143c8
:1017d00019508022d2001a6030bdc04600e100e0fe
:0417e000ffff00ff08
:020000040000fa
:1017e40030b51500012289b0524201920432ff3211
:1017f4000292002800d16846002403900491a1427b
:1018040000d04c1e0594002906da4f220120074b14
:1018140040421a6009b030bd002207900270069061
:101824001a00290001a800f0e3faf3e70001002000
:020000040000fa
:10183400dc0000201c00000000000000b0000020bc
:101844002c00000000000000500000206000000098
:1018540000000000f8000020040000000000000068
:10186400000000205000000000000000fc000020e8
:10187400080000000000000000000000000000005c
:020000040000fa
:1018840010b50e4b0e4a934207d30e480168002947
:1018940007d14368002b04d110bd00211970013316
:1018a400f1e704008368084a9bb20c349b009b5800
:1018b40042682000984780002018e7e700000020d5
:0c18c4000000002034180000641e00002a
:020000040000fa
:1018d00010b5064c2378002b07d1054b002b02d006
:1018e000044800e000bf0123237010bddc0000208d
:1018f0000000000000000000044b10b5002b03d0d6
:101900000349044800e000bf10bdc04600000000cd
:08191000e000002000000000cf
:020000040000fa
:1019180010b50a4b98470a4b9847fff7afff094b9a
:10192800ff229343084a9360084b9847084b98470f
:10193800084b984700f0baf9fee7c046c70e00000a
:10194800c70e00000000000000ed00e0dd160000fa
:08195800c70e0000c70e0000dd
:020000040000fa
:1019600041008c46012212068a420bd8090938230d
:101970001b06c918c30fdb07194340076346da4249
:1019800004d27047c10fc9070020704703d1382324
:101990001b06c918704738231b06c9180122d20438
:0419a0001143704738
:020000040000fa
:1019a40030b401256d054c00e54215d85c00e542d4
:1019b40012d80c001c436400044314430fd005d216
:1019c40082428b418041013030bc70479042994142
:1019d4008041013030bc7047002030bc704701208a
:0419e40030bc70475c
:020000040000fa
:1019e8000c4b00221a621a779a60da600a4b80223e
:1019f80092025a601a00138a1bb2002bfbdb064bbb
:101a08000b229a72054a1a601a00138a1bb2002b1d
:101a1800fbdb7047b0000020000c00420e013010c4
:020000040000fa
:101a280070b50d4b5e681b68db0714d50b4b58432c
:101a3800094b9b6800280ed00021074d06e0741c56
:101a4800a41ae318c9181300884204d9aa689a424c
:101a5800f5d89b1af6e770bd10e000e080bb0000e7
:020000040000fa
:101a6800030010b51a78202a0dd01100093904296d
:101a780009d900212b2a02d02d2a01d101310133a5
:101a880000200a2404e00133ece760430133801aa4
:101a98001a78303a092af8d9002900d1404210bdf5
:020000040000fa
:101aa80030b401256d054c00e54215d85c00e542cf
:101ab80012d80c001c436400044314430cd005d214
:101ac80082428b418041404230bc704790429941ec
:0e1ad8008041404230bc7047002030bc704757
:020000040000fa
:101ae60030b401256d054c00e54215d85c00e54291
:101af60012d80c001c436400044314430cd005d2d6
:101b0600904299418041404230bc704782428b41ad
:0e1b16008041404230bc7047002030bc704718
:020000040000fa
:101b240010b50c4b5b7b002b13d00a4a937bdbb2c2
:101b3400527bd20703d5db0701d5fff7abfb054a80
:101b4400937bdbb2527b520703d55b0701d5fff7ca
:081b540013fa10bd0008004265
:020000040000fa
:101b5c0010b50c4b5b7b002b13d00a4a937bdbb28a
:101b6c00527bd20703d5db0701d5fff7d1fb054a22
:101b7c00937bdbb2527b520703d55b0701d5fff792
:081b8c004bfa10bd00140042e9
:020000040000fa
:101b9400f0b5050000200a4a4400a65c002e02d1dc
:101ba40012195078f0bd296801300f78c0b2b742dd
:101bb40003d112190131507829600a28ebd9f1e7d1
:041bc4003a1e0000c5
:020000040000fa
:101bc800f4464a1805d200f046f801d5c017400877
:101bd800604701235b05d34206d200f03cf801d5eb
:101be8000120c0074042604701d10042f5d0d0171c
:041bf80040087047ea
:020000040000fa
:101bfc0010b50a4b06225a60fff744fcfff704f8b5
:101c0c00fff738fd00f07cf9fff7e8fefff704fd65
:101c1c0000f0c0f8fff7b6fd10bdc0460040004113
:020000040000fa
:101c2c0070b4012676054c005d00e6420cd8ee42fd
:101c3c000ad825430543154303d0994204d1904259
:0e1c4c0002d1012070bc7047002070bc7047b0
:020000040000fa
:101c5a004a0010d2520d03231b02ff33d21a0ad4b0
:101c6a0052421f3209d4400dc90208430123db073f
:0e1c7a001843d040704700207047d0177047c5
:020000040000fa
:101c880010b50400000afff753fde0b2fff750fd5e
:101c98007d20fff7c5fe0020fff74afd0400002065
:0c1ca800fff746fd2402204380b210bd6f
:020000040000fa
:101cb40000b585b00020fff79fff074b009300237a
:101cc40001930293039300216846fff751fa00f051
:0c1cd400bdf8fff775fcfce780841e00e3
:020000040000fa
:101ce000002380290fdb812901dd83290bd1072106
:101cf000136807338b431900083111601a685b6859
:0a1d000002604360012318007047e1
:020000040000fa
:021d0a00704720
:020000040000fa
:101d0c00084b1b8a5b070bd0064b07221a829b7b66
:101d1c005b0705d5034b04211a8b9a7b0a42fbd136
:081d2c007047c04600080042a8
:020000040000fa
:101d3400084b1b8a5b070bd0064b07221a829b7b3e
:101d44005b0705d5034b04211a8b9a7b0a42fbd10e
:081d54007047c0460014004274
:020000040000fa
:101d5c0070b505690400954200d915002a00606928
:101d6c0000f084f8226963695b19551b0022256118
:061d7c0063611a7070bde6
:020000040000fa
:101d8200002310b5934206d103201840421e904111
:0e1d92009b08c01810bdc45ccc540133f2e7ae
:020000040000fa
:101da000044b00221a609a60034a5a6004221a60a7
:0c1db0007047c04610e000e07fbb000060
:020000040000fa
:101dbc00054b004206d5404200b5984708bc0122ad
:0c1dcc00d207114318470000d91d000089
:020000040000fa
:101dd80042221201033a010007d002d4013a001846
:0c1de800fcd51205c30a4005991870478d
:020000040000fa
:101df40013b50400019201aafef7c2fb6368db0677
:081e040001d50120404216bd8a
:020000040000fa
:101e0c000378002b06d0030001331a78002afbd18b
:081e1c00181a70470020fce7d2
:020000040000fa
:101e24000eb403b503aa02ca019200f02df802b061
:061e340008bc03b01847d2
:020000040000fa
:101e3a0068076c094c836a9074a07ac0008068882d
:061e4a0000846c8200819f
:020000040000fa
:101e5000034b00229a601a6801210a431a607047f6
:041e600010e000e0ae
:020000040000fa
:101e6400c91e0000831d00004d1f00004d1f00000f
:041e74004d1f0000fe
:020000040000fa
:101e780010b5002a05d00023cc5cc454013393422a
:041e8800fad110bdbe
:020000040000fa
:101e8c0010b513000a000249fff7a6fc10bdc046ae
:041e9c00ffffff7fc6
:020000040000fa
:101ea000002a06d00300c9b2821819700133934288
:041eb000fbd17047ab
:020000040000fa
:101eb40003000a7818001a7001310133002af8d19e
:041ec4007047c0465d
:020000040000fa
:101ec8008a18914201d10020704700230b7001311c
:021ed800f7e72a
:020000040000fa
:101eda00494e4600696e66004e414e006e616e00c4
:020000040000fa
:101eec0010b5fef7e7fd029a039bfef7e3fc10bd6d
:020000040000fa
:0e1efc000300413b192b01d8202318437047e7
:020000040000fa
:0c1f0c00014b82225a60704700400041e7
:020000040000fa
:0c1f180003695a401140594001617047b4
:020000040000fa
:0c1f2400014b01229a7170470010004030
:020000040000fa
:0c1f300010b50400fff7beff200010bd3c
:020000040000fa
:081f3c00252e32660000c046ac
:020000040000fa
:081f4400286e696c29002500dc
:020000040000fa
:041f4c0000207047ba
:020000040000fa
:041f500000207047b6
:020000040000fa
:041f540000207047b2
:020000040000fa
:041f580000207047ae
:020000040000fa
:041f5c007047c046c4
:020000040000fa
:0200000400807a
:0440000077c700d0ae
:020000040000fa
:0200000400807a
:044004005c01ffff5d
:00000001FF
